:020000040800F2
:1000000000000220055B0008D9010008DD0100089E
:10001000E1010008E5010008E90100080000000016
:10002000000000000000000000000000ED010008DA
:10003000F101000800000000F50100088927000810
:100040004D5B00084D5B00084D5B00084D5B0008F0
:100050004D5B00084D5B0008F3270008FF270008F0
:100060004D5B00084D5B0008E72700084D5B00086A
:100070004D5B00084D5B00084D5B00084D5B0008C0
:100080004D5B00084D5B00084D5B00080000000060
:100090000000000000000000000000004D5B0008B0
:1000A0004D5B00084D5B00084D5B00084D5B000890
:1000B0004D5B00084D5B00084D5B0008B927000848
:1000C000C92700084D5B00084D5B00080B2800089D
:1000D0004D5B00084D5B0008A927000800000000E8
:1000E000D92700084D5B00084D5B000800000000A8
:1000F0000000000000000000000000004D5B000850
:10010000000000004D5B0008972700084D5B0008C9
:1001100000000000000000000000000000000000DF
:100120004D5B00084D5B00084D5B00084D5B00080F
:100130004D5B00080000000000000000000000000F
:100140000000000000000000000000004D5B0008FF
:100150004D5B00084D5B00084D5B00084D5B0008DF
:100160004D5B00084D5B000800000000000000002F
:10017000000000000000000000000000000000007F
:10018000000000004D5B00080000000000000000BF
:080190004D5B00084D5B000807
:1001980010B5054C237833B9044B13B10448AFF3B9
:1001A80000800123237010BDC8000020000000005B
:1001B800A85B000808B5034B1BB103490348AFF31C
:1001C800008008BD00000000CC000020A85B0008EB
:1001D80000BF704700BFFDE700BFFDE700BFFDE7B8
:1001E80000BFFDE700BF704700BF704700BF704702
:1001F80008B5184BD3F88830164A43F47003C2F890
:100208008830154B1B68144A43F001031360124BE6
:1002180000229A60104B1B680F4A23F0847323F462
:10022800803313600C4B0D4A5A600B4B1B680A4A0B
:1002380023F480231360084B0022DA600849022067
:1002480000F094F9034B4FF000629A6000F00AF84E
:1002580000BF08BD00ED00E0003802401030002467
:10026800E400002086B000230493002305930223B2
:1002780003930023029302230193334B9B6803F0FB
:100288000C030493049B082B11D0049B082B44D81F
:10029800049B002B03D0049B042B04D03DE02B4B84
:1002A8002B4A1A603DE0294B2A4A1A6039E0264B4E
:1002B8005B689B0D03F001030293234B5B6803F01B
:1002C8003F030193029B002B0CD0224A019BB2FBF7
:1002D800F3F31D4A52689209C2F3080202FB03F3C2
:1002E80005930BE01A4A019BB2FBF3F3164A5268D6
:1002F8009209C2F3080202FB03F30593124B5B68F1
:100308001B0C03F0030301335B000393059A039B63
:10031800B2FBF3F30D4A136003E00C4B0C4A1A606E
:1003280000BF094B9B681B0903F00F030A4AD35C03
:100338000493064B1A68049B22FA03F3034A1360DA
:1003480000BF06B0704700BF003802400000002020
:100358000024F40000127A00F85C000882B003461A
:100368008DF807309DF80730052B00F2928001A226
:1003780052F823F095030008BD030008E5030008C0
:100388000D040008350400085D040008424B1B6892
:1003980003F00103002B71D13F4B1B683E4A43F029
:1003A8000103136000BF3C4B1B6803F00203002BE2
:1003B800F9D063E0384B1B6803F48033002B5FD11E
:1003C800354B1B68344A43F45023136000BF324B4B
:1003D8001B6803F40033002BF9D051E02E4B1B6847
:1003E80003F08073002B4DD12B4B1B682A4A43F036
:1003F8008073136000BF284B1B6803F00073002B49
:10040800F9D03FE0244B1B6803F08063002B3BD1FD
:10041800214B1B68204A43F08063136000BF1E4BCA
:100428001B6803F00063002BF9D02DE01A4B5B6FBB
:1004380003F00103002B29D1174B5B6F164A43F0D9
:100448000103536700BF144B5B6F03F00203002BDB
:10045800F9D01BE0104B1B6F03F00103002B17D1E1
:100468000D4B1B6F0C4A43F00103136700BF0A4B87
:100478001B6F03F00203002BF9D009E000BF08E06E
:1004880000BF06E000BF04E000BF02E000BF00E0DC
:1004980000BF00BF02B070470038024082B0034678
:1004A8008DF807309DF80730052B39D801A252F88E
:1004B80023F000BFD5040008E3040008F104000895
:1004C800FF0400080D0500081B050008164B1B68F3
:1004D800154A23F00103136022E0134B1B68124AEC
:1004E80023F4502313601BE00F4B1B680E4A23F0C4
:1004F8008073136014E00C4B1B680B4A23F0806375
:1005080013600DE0084B5B6F074A23F00103536744
:1005180006E0054B1B6F044A23F00103136700BF75
:1005280000BF02B0704700BF0038024082B00346E7
:100538008DF807300C4B9B6823F003029DF80730B9
:1005480003F00303084913438B6000BF064B9B6805
:100558009B0803F003029DF807309A42F6D100BFCA
:1005680000BF02B0704700BF0038024000B585B038
:1005780001900091019B072B08D8019A1346DB00D4
:100588009B1A9B006A4A1344039301E0694B039347
:10059800039B1B78012B0CD10120FFF7DFFE012004
:1005A800FFF7C4FF0220FFF779FF0020FFF776FF6F
:1005B80095E0039B1B78022B40F085805E4B1B6CFB
:1005C8005D4A43F080531364039B5B78012B09D188
:1005D8000120FFF7C3FE584B5B68574A43F480037A
:1005E800536008E00020FFF7B9FE534B5B68524A9E
:1005F80023F480035360514B1B6823F04052039B44
:10060800DB7A1B074D4913430B604B4B9B6823F464
:100618007C4323F0F003039A127A1201D2B21A43F0
:10062800039B5B7A9B0203F4E0531A43039B9B7A78
:100638005B039BB2404913438B603F4B5A68404B66
:100648001340039A127902F03F021A43039B5B8816
:10065800990147F6C0730B401A43039B5B795B080B
:10066800DBB2013B1B0403F440331A43039B9B7921
:100678001B0603F07C53304913434B600220FFF7FD
:100688006DFE304B1B6823F00F02039BDB6803F001
:100698000F0313432B4A43F4E06313600220FFF770
:1006A80045FF039B5B78012B09D1234B1B6803F0A3
:1006B8000103002B03D00020FFF7F0FE0FE001201C
:1006C800FFF7ECFE0BE00020FFF748FE0020FFF7E5
:1006D8002DFF0220FFF7E2FE0120FFF7DFFE039B5C
:1006E8001A69009B1A60039B5A69009B5A60039B16
:1006F8005B7A002B02D1039B5B6902E0039B5B6979
:100708005B00009A9360039B9A69009BDA60039BE5
:100718009B7A002B02D1039B9B6902E0039B9B6998
:100728005B00009A136100BF05B05DF804FB00BFD1
:1007380004000020740000200038024000700040CF
:100748000080FCF0003C024010B487B00190019B8F
:100758001B680593059B5B690493714B1B68013308
:100768006F4A1360049B03F00103002B09D0019B1F
:100778009B6A5B00019A92F830201A43059B1A6124
:10078800C9E0049B03F00203002B3FD0019B93F8C0
:100798003030002B1CD1059B9B690393019BDA6ABF
:1007A800019BDB6B581C0199C86313441B781A46DC
:1007B800059B1A61019BDA6B019B9B6B9A4240F087
:1007C800AA80059B5B6823F48062059B5A60A2E0BF
:1007D800019B93F83030012B40F09D80019B5B6BAF
:1007E800012B09D1059B1B6823F48062059B1A60C5
:1007F800059B9B6903938EE0059B1B6843F480620D
:10080800059B1A60059B9B69039384E0049B03F096
:100818008003002B51D0019BDA6B019B9B6B9A42A2
:1008280018D2019BDA6A019BDB6B581C0199C863DB
:1008380013441B781A46059B1A61019BDA6B019BCE
:100848009B6B9A4267D1059B5B6823F48062059B8A
:100858005A6060E0019BDA6B019B9B6B9A425AD10C
:10086800049B03F00403002B55D0019B5B6B002B0A
:1008780013D0019B012283F83020019B00221A64C7
:10088800059B5B6843F48062059B5A60059B1B6867
:1008980043F4A062059B1A603DE0059B1B6843F486
:1008A8000072059B1A60059B5B6823F40072059B28
:1008B8005A60019B00225A622DE0049B03F040031A
:1008C800002B28D0059B1C69019BDA6A019B1B6CD5
:1008D800581C019908641344E2B21A70019B1A6CFF
:1008E800019B5B6B013B9A4206D1059B1B6823F475
:1008F8008062059B1A600EE0019B1A6C019B5B6B82
:100908009A4208D1059B1B6843F40072059B1A6044
:10091800019B00225A6200BF07B05DF8044B704784
:10092800F800002084B00190019B1B680393039B8F
:100938005B690293029B03F48073002B0AD0039B2C
:100948005B6923F48072039B5A61019B4FF0FF326D
:100958005A6229E0029B03F40073002B0AD0039B20
:100968005B6923F40072039B5A61019B6FF00502D7
:100978005A6219E0029B03F48063002B0AD0039BA0
:100988005B6923F48062039B5A61019B6FF0070245
:100998005A6209E0039B5B6923F45F42039B5A6137
:1009A800019B4FF0FF325A62039B1B6843F40072AD
:1009B800039B1A6000BF04B0704782B00190019B8E
:1009C8001B681A68019B1B6842F400421A60019B6D
:1009D8001B6800221A60224B5A68019B1B68214938
:1009E800A1FB0212920C5A60019B5B68002B02D19A
:1009F800019B1D4A5A601A4B5968019B5A68134655
:100A08005B001344B1FBF3F2019B1B6842F4004204
:100A1800DA61134B5B68134AA2FB03239B0C4FF468
:100A2800967202FB03F3114AA2FB03239A09019B66
:100A38001B6801321A62019B1B685A6A019B1B687A
:100A480022F01F025A62019B1B681A68019B1B68EF
:100A580042F001021A600023184602B0704700BF36
:100A6800E400002083DE1B43801A0600D34D621089
:100A780086B0039001921A460B46ADF80A30134629
:100A8800ADF80830039B01225A62BDF80A20039B87
:100A98009A62039B019ADA62039B00225A63BDF8AB
:100AA8000820039B9A63039B0022DA63039B0022BE
:100AB8001A64039B002283F83020039B1B685A6842
:100AC800039B1B6842F4E0625A60039B1B681A6828
:100AD800039B1B6842F480721A6000BF039B5B6A29
:100AE800012BFBD00023059303E000BF059B0133D6
:100AF8000593059B632BF8DD039B5B6A184606B0DC
:100B0800704786B0039001921A460B46ADF80A303A
:100B18001346ADF80830039B01225A62BDF80A203B
:100B2800039B9A62039B019ADA62BDF80820039B33
:100B38005A63039B00229A63039B0022DA63039B98
:100B480000221A64039B012283F83020039B1B6850
:100B58005A68039B1B6842F4E0625A60039B1B6857
:100B68001A68039B1B6842F480721A6000BF039BDB
:100B78005B6A012BFBD00023059303E000BF059BB4
:100B880001330593059B632BF8DD039B5B6A1846CD
:100B980006B0704786B00390019200930B46ADF8FB
:100BA8000A30039B01225A62BDF80A20039B9A620D
:100BB800039B019ADA62039B069A5A63039B009A85
:100BC8009A63039B0022DA63039B00221A64039B47
:100BD800002283F83020039B1B685A68039B1B681C
:100BE80042F4E0625A60039B1B681A68039B1B6807
:100BF80042F480721A6000BF039B5B6A012BFBD032
:100C08000023059303E000BF059B01330593059B73
:100C1800632BF8DD039B5B6A184606B0704700BF7C
:100C280088B0039002910192039B0693029B019A5C
:100C3800B3FBF2F2019901FB02F29A1A039B591CC9
:100C480003911D498A5C1A70029A019BB2FBF3F367
:100C58000293029B002BE9D1039B00221A70039A8E
:100C6800069BD31A0593002307931CE0069A079B5B
:100C780013441B788DF81330059A079BD31A013B50
:100C8800069A1A440699079B0B4412781A70059A1B
:100C9800079BD31A013B069A13449DF813201A7038
:100CA800079B01330793059B5B08079A9A42DDD39C
:100CB80000BF00BF08B07047AC00002086B00190AC
:100CC800009100230593019B5A1C01921B788DF813
:100CD8000F3038E09DF80F302F2B08D99DF80F30D2
:100CE800392B04D89DF80F30303B04931EE0009B4D
:100CF800102B0CD19DF80F30402B08D99DF80F30E0
:100D0800462B04D89DF80F30373B04930EE0009B28
:100D1800102B1CD19DF80F30602B18D99DF80F307F
:100D2800662B14D89DF80F30573B0493009B059A07
:100D380002FB03F3049A13440593019B5A1C019286
:100D48001B788DF80F309DF80F30002BC2D1059B12
:100D5800184606B0704786B00190009100230593AD
:100D6800009B013B049318E0059B019A13441B78F0
:100D78000393049B019A1A44059B01990B4412782A
:100D88001A70049B019A1344039AD2B21A70059BF5
:100D980001330593049B013B0493059A049B9A42F3
:100DA800E2DB00BF00BF06B0704700B587B0039014
:100DB80002910192002305931DE0039A1D4B83FBCA
:100DC80002139910D317C91A0B469B000B445B00FA
:100DD800D11ACAB2059B591C05911946029B0B44AE
:100DE8003032D2B21A70039B124A82FB031292105D
:100DF800DB17D31A0393039B002BDED107E0059B77
:100E08005A1C05921A46029B134430221A70059AFE
:100E1800019B9A42F3DB05990298FFF79CFF059B1B
:100E2800029A134400221A70059B184607B05DF811
:100E380004FB00BF6766666600B589B003908DED58
:100E4800020A0191DDED027AFDEEE77A17EE903A9B
:100E58000793079B07EE903AF8EEE77A9DED027A42
:100E680077EE677ACDED067A002203990798FFF7A7
:100E78009CFF0590019B002B25D0059B039A1344EA
:100E88002E221A7001989FED120B00F025F853ECF2
:100E9800102B1046194604F0E1FD07EE100ADDEDAF
:100EA800067A67EE877ACDED067ADDED067AFDEEF5
:100EB800E77A059B0133039A1344019A194617EE02
:100EC800900AFFF772FF00BF09B05DF804FB00BF8E
:100ED800000000000000244000B589B08DED020B31
:100EE8000190019B002BB8BF5B4207934FF00002B3
:100EF8001D4BCDE904231BE0079B03F00103002BE6
:100F080009D0DDE90223DDE9040104F095FB02467E
:100F18000B46CDE90423079B5B080793DDE9022311
:100F2800DDE9020104F088FB02460B46CDE9022305
:100F3800079B002BE0D1019B002B09DADDE9042394
:100F48004FF00000084904F0A1FC02460B4601E0FE
:100F5800DDE9042343EC172BB0EE470AF0EE670AED
:100F680009B05DF804FB00BF0000F03F08B503209E
:100F780000F0C8FA0F2000F00DF80023184608BD4D
:100F880008B500F005F80023184608BD00BF7047F3
:100F980000BF704700B583B00190134B1A68134B1C
:100FA8001B7819464FF47A73B3FBF1F3B2FBF3F3F2
:100FB800184600F0EEFA0346002B01D001230EE09C
:100FC800019B0F2B0AD8002201994FF0FF3000F047
:100FD800A3FA074A019B1360002300E00123184687
:100FE80003B05DF804FB00BF00000020C40000202F
:100FF800C0000020044B1B781A46044B1B6813449E
:10100800024A136000BF7047C4000020FC000020A3
:10101800014B1B6818467047FC000020014B1B68F9
:1010280018467047C000002000B585B003468DF80B
:10103800073000238DF80F300B4B1B789DF80720E5
:101048009A420BD0084A9DF807301370074B1B686B
:101058001846FFF79FFF03468DF80F309DF80F30B5
:10106800184605B05DF804FBC4000020C00000204D
:10107800014B1B7818467047C400002000B585B0A6
:101088000190FFF7C5FF0290019B0393039BB3F107
:10109800FF3F05D0094B1B781A46039B1344039363
:1010A80000BFFFF7B5FF0246029BD31A039A9A4284
:1010B800F7D800BF00BF05B05DF804FBC4000020EE
:1010C800034B1B68024A23F00203136000BF7047FA
:1010D80010E000E0034B1B68024A43F00203136070
:1010E80000BF704710E000E0014B1846704700BF92
:1010F80000050701024B1B681B0C1846704700BF10
:10110800002004E0024B1B68C3F30B03184670472A
:10111800002004E0034B5B68024A43F0010353607C
:1011280000BF7047002004E0034B5B68024A23F0CD
:101138000103536000BF7047002004E0034B5B6865
:10114800024A43F00203536000BF7047002004E0E6
:10115800034B5B68024A23F00203536000BF7047E9
:10116800002004E0034B5B68024A43F00403536029
:1011780000BF7047002004E0034B5B68024A23F07D
:101188000403536000BF7047002004E0024B0122B3
:101198001A6000BF704700BF00042742024B0022BC
:1011A8001A6000BF704700BF00042742014B1B684C
:1011B80018467047107AFF1F014B1B681846704786
:1011C800147AFF1F014B1B6818467047187AFF1FD7
:1011D80084B00190019B03F0070303930B4BDB687A
:1011E8000293029A4FF6FF0313400293039B1A02DD
:1011F800029B134343F0BF6343F400330293034A53
:10120800029BD36000BF04B0704700BF00ED00E050
:10121800034BDB681B0A03F007031846704700BF3F
:1012280000ED00E082B003468DF807309DF80730E6
:1012380003F01F0205499DF907305B09012000FAF8
:1012480002F241F8232000BF02B0704700E100E03D
:1012580082B003468DF807309DF8073003F01F026F
:1012680006499DF907305B09012000FA02F2203394
:1012780041F8232000BF02B0704700BF00E100E042
:1012880082B003468DF80730084A9DF907305B099C
:10129800403352F823209DF8073003F01F0322FA49
:1012A80003F303F00103184602B0704700E100E0C1
:1012B80082B003468DF807309DF8073003F01F020F
:1012C80006499DF907305B09012000FA02F2403314
:1012D80041F8232000BF02B0704700BF00E100E0E2
:1012E80082B003468DF807309DF8073003F01F02DF
:1012F80006499DF907305B09012000FA02F26033C4
:1013080041F8232000BF02B0704700BF00E100E0B1
:1013180082B003468DF80730084A9DF907305B090B
:10132800803352F823209DF8073003F01F0322FA78
:1013380003F303F00103184602B0704700E100E030
:1013480082B0034600918DF807309DF90730002BD5
:101358000CDA009BDAB20C499DF8073003F00F0352
:10136800043B1201D2B20B441A7609E0009BDAB2B0
:1013780006499DF907301201D2B20B4483F80023C5
:1013880000BF02B0704700BF00ED00E000E100E0E0
:1013980082B003468DF807309DF90730002B0BDA31
:1013A8000B4A9DF8073003F00F03043B13441B7EE0
:1013B800DBB21B09DBB208E0064A9DF9073013448B
:1013C80093F80033DBB21B09DBB2184602B0704752
:1013D80000ED00E000E100E088B003900291019286
:1013E800039B03F007030793079BC3F10703042B31
:1013F80028BF04230693079B0433062B02D9079BB7
:10140800033B00E0002305934FF0FF32069B02FAEE
:1014180003F3DA43029B1A40059B9A404FF0FF31D1
:10142800059B01FA03F3D943019B0B40134318466C
:1014380008B0704788B00390029101920093029B14
:1014480003F007030793079BC3F10703042B28BF87
:1014580004230693079B0433062B02D9079B033BFF
:1014680000E000230593039A059BDA404FF0FF3113
:10147800069B01FA03F3DB431A40019B1A604FF005
:10148800FF32059B02FA03F3DA43039B1A40009BE1
:101498001A6000BF08B07047BFF34F8F00BF074BFB
:1014A800DB6803F4E0620549054B1343CB60BFF3E7
:1014B8004F8F00BF00BF00BF00BFFBE700ED00E09B
:1014C8000400FA0500B583B00190019B013BB3F11C
:1014D800807F01D301230FE0094A019B013B536040
:1014E8000F214FF0FF30FFF72BFF054B00229A60CA
:1014F800034B07221A600023184603B05DF804FB6B
:1015080010E000E000B583B001900198FFF760FE9D
:1015180000BF03B05DF804FB00B587B00346029135
:1015280001928DF80F3000230593FFF771FE0590A7
:10153800019A02990598FFF74FFF02469DF90F306F
:1015480011461846FFF7FCFE00BF07B05DF804FB24
:1015580000B583B003468DF807309DF9073018466B
:10156800FFF760FE00BF03B05DF804FB00B583B071
:1015780003468DF807309DF907301846FFF768FED7
:1015880000BF03B05DF804FB08B5FFF785FF00BF97
:1015980008BD00B583B001900198FFF793FF03469B
:1015A800184603B05DF804FBBFF35F8F00BF054B1F
:1015B8005B6A044A23F480335362034B00225A6067
:1015C80000BF704700ED00E090ED00E082B00190B0
:1015D800094A019B43F001035360084B5B6A074AC1
:1015E80043F480335362BFF34F8F00BFBFF36F8F55
:1015F80000BF00BF02B0704790ED00E000ED00E0D2
:1016080082B00190019B5A781C4B9A60019B1B7811
:10161800002B29D0194A019B5B68D360019B1B7B77
:101628001A07019BDB7A1B061A43019B9B7ADB0492
:101638001A43019B5B7B9B041A43019B9B7B5B04C6
:101648001A43019BDB7B1B041A43019B5B7A1B0239
:101658001A43019B1B7A5B001343019A12781146C7
:10166800064A0B43136105E0044B0022DA60034B82
:1016780000221A6100BF02B0704700BF90ED00E081
:1016880008B5FFF7C5FD0346184608BD00B585B087
:1016980002910192009303468DF80F309DF90F30A7
:1016A8001846FFF775FE009B019A0299FFF7C2FEE4
:1016B80000BF05B05DF804FB00B583B003468DF8A4
:1016C80007309DF907301846FFF7F2FD00BF03B059
:1016D8005DF804FB00B583B003468DF807309DF92B
:1016E80007301846FFF7CCFD0346184603B05DF8EF
:1016F80004FB00B583B003468DF807309DF9073029
:101708001846FFF7EDFD00BF03B05DF804FB00B518
:1017180083B003468DF807309DF907301846FFF768
:10172800F7FD0346184603B05DF804FB82B001904C
:10173800019B042B06D1084B1B68074A43F004039E
:10174800136005E0044B1B68034A23F0040313608D
:1017580000BF02B0704700BF10E000E008B500F01D
:1017680002F800BF08BD00BF704700BF00000000BE
:1017780000B583B00190019B1B685868019B9B6A68
:10178800591C019A9162C2B21A70019BDB8D9BB2FF
:10179800013B9AB2019BDA85019BDB8D9BB2002B42
:1017A8000AD1019B1B68DA68019B1B6822F02002A2
:1017B800DA60019803F017FD00BF03B05DF804FB81
:1017C80000B585B00190019B1B681B680393039BC0
:1017D80003F02003002B03D00198FFF7C9FF19E09D
:1017E800039B03F01003002B03D0019B1B685B686D
:1017F80010E0039B03F00803002B03D0019B1B6838
:101808005B6807E0039B03F00103002B02D0019BF8
:101818001B685B6800BF05B05DF804FB84B00190ED
:10182800019B5B680393019B1B68264A934204D083
:10183800019B1B68244A934208D1244BD968019B19
:101848001B68039AB1FBF2F29A6007E01F4B5968D4
:10185800019B1B68039AB1FBF2F29A60019B1B681B
:1018680000229A61019B1B685B69019A126823F444
:101878007F6323F00F035361019B1B681B6923F4EB
:10188800FE4323F07F03019AD168019A12680B4343
:101898001361019B1B68DB6823F43F4323F0FF03BC
:1018A800019A92681A43019B5B691343019A126873
:1018B80043F4005343F00C03D3600023184604B0EC
:1018C800704700BF0010014000140140E4000020F0
:1018D80084B0039002911346ADF8063000231846F1
:1018E80004B0704784B0039002911346ADF80630F7
:1018F80014E000BF039B1B681B6803F02003002B48
:10190800F8D0039B1B685968029B5A1C0292CAB202
:101918001A70BDF80630013BADF80630BDF8063048
:10192800002BE6D10023184604B0704784B003901A
:1019380002911346ADF80630039B1B68DA68039BD7
:101948001B6842F02002DA60039B029A9A62039BAA
:10195800BDF806209A85039BBDF80620DA8500238A
:10196800184604B0704782B001900B468DF80330DA
:1019780000BF02B0704782B00190009100BF02B072
:1019880070470EB42DE9F04398B0019020AB0B934B
:101998002CE11F9B1B78252B40F01F811F9B0133D7
:1019A8001F931F9B1B78252B3CD0252BC0F20E8143
:1019B800782B00F30B81632BC0F20881633B152B56
:1019C80000F2048101A252F823F000BF371A000880
:1019D800651A0008D51B0008DF1A0008D51B000887
:1019E800D51B0008D51B0008D51B0008D51B00080F
:1019F800D51B0008D51B0008D51B0008D51B0008FF
:101A0800D51B0008D51B0008D51B0008511A000873
:101A1800D51B00089B1A0008D51B0008D51B000819
:101A2800BD1A000825210198FFF79DFFDBE00B9BFD
:101A38001A1D0B921B688DF833309DF83330194608
:101A48000198FFF790FFCEE00B9B1A1D0B921B68C5
:101A5800169316990198FFF78EFFC4E00B9B1A1D89
:101A68000B921B681793179B002B06DA2D21019800
:101A7800FFF779FF179B5B42179302AB0A2217996E
:101A88001846FFF7CDF802AB19460198FFF773FF28
:101A9800A9E00B9B1A1D0B921B68179302AB0A2235
:101AA80017991846FFF7BCF802AB19460198FFF7DB
:101AB80062FF98E00B9B1A1D0B921B68179302ABF1
:101AC800102217991846FFF7ABF802AB1946019890
:101AD800FFF751FF87E00B9B073323F0070303F160
:101AE80008020B92D3E90023CDE91423DDE91401A0
:101AF8004FF000024FF00003CA0F0023CDE9122374
:101B0800129B03F001031193DDE914239046C3F3FC
:101B18001309CDE91289DDE9120103F057FD0246E8
:101B28000B46CDE90E234FF00002394BDDE90E01DB
:101B380003F0ACFE02460B46CDE90E234FF000023F
:101B4800344BDDE90E0103F0C1FB02460B46CDE93B
:101B58000E23DDE914014FF000024FF000030A0DD7
:101B68000023C2F30A060027CDE91267DDE9122334
:101B78002949541843F1FF35CDE91245129B1846FF
:101B88009FED210BFFF7A8F951EC100BDDE90E23AF
:101B980003F052FD02460B461046194603F05EFF5D
:101BA80003460D93119B012B03D12D210198FFF7BB
:101BB800DAFE02AB05219DED0D0A1846FFF73CF948
:101BC80002AB19460198FFF7D6FE0CE01F9B1B7865
:101BD80019460198FFF7C7FE05E01F9B1B781946B9
:101BE8000198FFF7C0FE1F9B01331F931F9B1B78B3
:101BF800002B7FF4CEAE00BF00BF18B0BDE8F043A5
:101C080003B07047AFF30080000000000000004000
:101C1800000030430000F03F01FCFFFF00B583B037
:101C28000346ADF806300B4B5A69BDF80630134031
:101C3800002B0BD0074B5A69BDF8063005491340F5
:101C48004B61BDF80630184603F0C6FA00BF03B072
:101C58005DF804FB003C014088B00190009100232E
:101C6800059300230493002306930023079359E167
:101C78000122079B02FA03F30593009B1B68059A50
:101C880013400493049A059B9A4240F04881009BB4
:101C98005B68022B03D0009B5B68122B23D1079B48
:101CA800DA08019B083253F822300693079B03F0A9
:101CB80007039B000F2202FA03F3DB43069A134043
:101CC8000693009B1A69079B03F007039B0002FA1F
:101CD80003F3069A13430693079BDA08019B08321D
:101CE800069943F82210019B1B680693079B5B002B
:101CF800032202FA03F3DB43069A13400693009B80
:101D08005B6803F00302079B5B0002FA03F3069A81
:101D180013430693019B069A1A60009B5B68012B8C
:101D28000BD0009B5B68022B07D0009B5B68112BD4
:101D380003D0009B5B68122B30D1019B9B680693F4
:101D4800079B5B00032202FA03F3DB43069A134066
:101D58000693009BDA68079B5B0002FA03F3069A76
:101D680013430693019B069A9A60019B5B6806934E
:101D78000122079B02FA03F3DB43069A13400693FA
:101D8800009B5B681B0903F00102079B02FA03F33F
:101D9800069A13430693019B069A5A60019BDB68D7
:101DA8000693079B5B00032202FA03F3DB43069AC0
:101DB80013400693009B9A68079B5B0002FA03F3A3
:101DC800069A13430693019B069ADA60009B5B68A8
:101DD80003F08053002B00F0A28000230393554B9F
:101DE8005B6C544A43F480435364524B5B6C03F47A
:101DF80080430393039B504A079B9B08023352F886
:101E080023300693079B03F003039B000F2202FA7B
:101E180003F3DB43069A13400693019B474A934218
:101E280019D0019B464A934213D0019B454A9342DD
:101E38000DD0019B444A934207D0019B434A9342E9
:101E480001D1042308E0072306E0032304E002236A
:101E580002E0012300E00023079A02F00302920047
:101E68009340069A134306933349079B9B08023312
:101E7800069A41F82320364B1B680693049BDB43E4
:101E8800069A13400693009B5B6803F48033002B8B
:101E980003D0069A049B134306932D4A069B1360AE
:101EA8002B4B5B680693049BDB43069A134006930F
:101EB800009B5B6803F40033002B03D0069A049B55
:101EC80013430693224A069B5360214B9B68069353
:101ED800049BDB43069A13400693009B5B6803F45C
:101EE8008013002B03D0069A049B13430693184AC9
:101EF800069B9360164BDB680693049BDB43069AAC
:101F080013400693009B5B6803F40013002B03D077
:101F1800069A049B134306930D4A069BD360079BBE
:101F280001330793079B0F2B7FF6A2AE00BF00BFBC
:101F380008B07047003802400038014000000240F5
:101F48000004024000080240000C02400010024059
:101F5800003C014082B001900B46ADF802300023EE
:101F6800184602B0704782B001900B46ADF80230B7
:101F78000023184602B0704782B001900B46ADF8B6
:101F880002301346ADF8003000BF02B0704782B08F
:101F980001900B46ADF802301346ADF8003000BF93
:101FA80002B0704700B583B00190019B1B681A69A5
:101FB800019B1B6822F01F021A61019803F018F9AF
:101FC80000BF03B05DF804FB82B0019000910023CC
:101FD800184602B0704782B001900091002318465D
:101FE80002B0704782B00190019B1B681A69019B7F
:101FF8001B6822F01F021A61019B1B681A68019B6B
:102008001B6802F47C421A60019B1B68019A5268A3
:102018009A62019B1B68019AD268DA62002318460B
:1020280002B0704782B0019000BF02B0704782B022
:10203800019000BF02B0704782B0019000BF02B0AB
:10204800704782B0019000BF02B0704782B0019023
:10205800019B1B681A69019B1B6822F01F021A6109
:10206800019B1B684FF400425A64019B1B68802245
:102078001A60019B1B68019A52689A62019B1B684F
:10208800019AD268DA620023184602B0704784B019
:102098000390029101920093029B042B02D8019BAA
:1020A800642B01D90023E9E0029B013B032B47D8AD
:1020B80001A252F823F000BFD1200008EF20000849
:1020C8000D2100082B210008039B1B68DB6A0133E4
:1020D800019A03FB02F2039B1B686A49A1FB0212E7
:1020E80052095A632DE0039B1B68DB6A0133019A8E
:1020F80003FB02F2039B1B686249A1FB021252090F
:102108009A631EE0039B1B68DB6A0133019A03FB99
:1021180002F2039B1B685B49A1FB02125209DA63B6
:102128000FE0039B1B68DB6A0133019A03FB02F291
:10213800039B1B685349A1FB021252091A6400E071
:1021480000BF029B013B0293029B032B6ED801A2A6
:1021580052F823F06D2100089F210008D1210008C2
:1021680003220008039B1B689B69029AD20002F0B5
:102178000802FF2101FA02F2D2431A40029BDB0057
:1021880003F00803682101FA03F31946039B1B684F
:102198000A439A614BE0039B1B689B69029AD20031
:1021A80002F00802FF2101FA02F2D2431A40029B10
:1021B800DB0003F00803682101FA03F31946039BC7
:1021C8001B680A439A6132E0039B1B68DB69029A29
:1021D800D20002F00802FF2101FA02F2D2431A40AB
:1021E800029BDB0003F00803682101FA03F3194698
:1021F800039B1B680A43DA6119E0039B1B68DB69D0
:10220800029AD20002F00802FF2101FA02F2D24338
:102218001A40029BDB0003F00803682101FA03F36C
:102228001946039B1B680A43DA6100E000BF009B64
:10223800002B14D0039B1B681B6A029A92000F2183
:1022480001FA02F2D2431A40029B9B00012101FAD3
:1022580003F31946039B1B680A431A620DE0039BAC
:102268001B681A6A029B9B000F2101FA03F3DB43E8
:102278001946039B1B680A401A620023184604B0DB
:10228800704700BF1F85EB5184B003900291019203
:10229800029B042B02D8019B642B01D900234DE03B
:1022A800029B013B032B47D801A252F823F000BF41
:1022B800C9220008E7220008052300082323000894
:1022C800039B1B68DB6A0133019A03FB02F2039B41
:1022D8001B681C49A1FB021252095A632DE0039B9B
:1022E8001B68DB6A0133019A03FB02F2039B1B683C
:1022F8001449A1FB021252099A631EE0039B1B6852
:10230800DB6A0133019A03FB02F2039B1B680D4948
:10231800A1FB02125209DA630FE0039B1B68DB6A18
:102328000133019A03FB02F2039B1B680549A1FBD9
:10233800021252091A6400E000BF0023184604B0D4
:10234800704700BF1F85EB5182B00190019B1B684D
:102358009B68224A1360214B1B6803F00203002B81
:1023680021D0019B1B6C002B1DD0019B5B6C012BAA
:1023780002D9019B1B68DB68019B9A6B019B5B6C14
:10238800581C0199486413441A78019B1B68DA6049
:10239800019B1B6C5A1E019B1A64114B1B6801336D
:1023A8000F4A136012E0019B1B68DB68019B1B68E6
:1023B8005A68019B1B6822F080025A60094B1B680F
:1023C8000133084A1360019B00221A65064B1B68FB
:1023D8000133054A136000BF02B070470C010020AA
:1023E80004010020080100200001002086B00190AF
:1023F800002304931D4BDB680493019B1B6B049A19
:10240800B2FBF3F303930023059326E0059B013306
:10241800012202FA03F31A46039B93421AD8019B3E
:102428005A6B059BDB001A43019B1B6842F44172FF
:102438001A60019B1B6804225A60019B1B681A687A
:10244800019B1B6842F040021A60049A059B02FA3D
:1024580003F307E0059B01330593059B072BD5D9AB
:102468004FF0FF33184606B0704700BFE400002065
:1024780084B0039002911346ADF80630039B012205
:102488001A65039B029A9A63BDF80630013B1A4607
:10249800039B1A64039B01225A64039B1B685A68B6
:1024A800039B1B6842F080025A60039B9B6B1A785F
:1024B800039B1B68DA6000BF039B1B689B6803F0E3
:1024C8000303002BF8D0039B1B689B6803F0800371
:1024D800002BF1D1039B1B68DB680023184604B06E
:1024E800704782B001900B468DF80330019B1B6842
:1024F8009DF80320DA6000BF019B1B689B6803F00E
:102508000303002BF8D0019B1B689B6803F0800332
:10251800002BF1D1019B1B68DB680023184602B031
:10252800704700BF82B003468DF807309DF807302A
:1025380003F01F0205499DF907305B09012000FAE5
:1025480002F241F8232000BF02B0704700E100E02A
:1025580082B0034600918DF807309DF90730002BB3
:102568000CDA009BDAB20C499DF8073003F00F0330
:10257800043B1201D2B20B441A7609E0009BDAB28E
:1025880006499DF907301201D2B20B4483F80023A3
:1025980000BF02B0704700BF00ED00E000E100E0BE
:1025A80000B585B0002303931C4B1B6B1B4A43F0FB
:1025B80001031363194B1B6B03F001030393039B84
:1025C80000230293154B1B6B144A43F00203136359
:1025D800124B1B6B03F002030293029B002301932F
:1025E8000E4B1B6B0D4A43F0040313630B4B1B6B21
:1025F80003F004030193019B00F012F800F012F8B5
:1026080000F012F800F024F800F036F800F06CF84A
:1026180000F034F800BF05B05DF804FB0038024054
:1026280000BF704700BF704782B000230193074B7B
:102638001B6C064A43F001031364044B1B6C03F044
:1026480001030193019B00BF02B0704700380240AC
:1026580082B000230193074B1B6C064A43F0080322
:102668001364044B1B6C03F008030193019B00BF28
:1026780002B070470038024000BF704700B587B00D
:1026880000230093164B1B6C154A43F40013136484
:10269800134B1B6C03F400130093009B4FF440731F
:1026A8000193122302930023039303230493042327
:1026B800059301AB19460B48FFF7CEFA02212020FB
:1026C800FFF746FF2020FFF72DFF03211F20FFF70C
:1026D8003FFF1F20FFF726FF00BF07B05DF804FB90
:1026E800003802400004024000B587B04FF4A073E0
:1026F800019301230293002303930123049301AB65
:1027080019461C48FFF7A8FA4023019301230293B6
:10271800002303930123049301AB19461648FFF7DE
:102728009BFA00230093154B5B6C144A43F48053C7
:102738005364124B5B6C03F480530093009BA023FB
:102748000193022302930023039303230493052395
:10275800059301AB19460748FFF77EFA04212320A9
:10276800FFF7F6FE2320FFF7DDFE00BF07B05DF898
:1027780004FB00BF00000240000402400038024091
:1027880008B5FEF737FCFEF7E9FF00BF08BD08B53E
:102798000248FFF707FC00BF08BD00BF8803002000
:1027A80008B50248FFF70CF800BF08BD9C030020DD
:1027B80008B50248FDF7C8FF00BF08BDCC030020DC
:1027C80008B50248FEF7AEF800BF08BDCC030020EC
:1027D80008B54FF40050FFF721FA00BF08BD08B54F
:1027E8001020FFF71BFA00BF08BD08B50120FFF74E
:1027F80015FA00BF08BD08B50220FFF70FFA00BFA1
:1028080008BD08B50248FFF79FFD00BF08BD00BF1F
:102818002003002000B585B00190019800F00DF963
:102828000199019B0122D02000F0BCF803468DF8E5
:102838000F309DF90F30002B17D1019B1B78612BAE
:1028480010D1019802F077FB03468DF80F309DF9FF
:102858000F30002B09D1019802F052FA03468DF887
:102868000F3002E0FD238DF80F309DF90F30184628
:1028780005B05DF804FB30B58BB00390029101926E
:10288800009304AB00221A605A609A60DA601A61F9
:10289800009801F050FF03468DF827309DF9273046
:1028A800002B77D1039B002B74D0029B002B71D097
:1028B800019B002B68D0019B0A2B65D80023ADF83B
:1028C80024303DE0009B1B7B002B1BD1BDF824303E
:1028D800039A13441B780099184601F05CFE0346DE
:1028E8008DF82730BDF82430039A13441A78BDF8C0
:1028F80024305B0002F07F02D2B228336B4403F825
:10290800182C0BE0BDF82430039A1A44BDF8243083
:102918005B00127828336B4403F8182CBDF8243078
:10292800029A1A44BDF824305B0001331278283328
:102938006B4403F8182CBDF824300133ADF824306B
:10294800BDF82430019A9A42BCD89DF92730002B53
:102958001ED1009B5C6C9DF81000019B5B005A1E09
:10296800009B5D6804AB591C2B46A04703461A46DA
:10297800009B83F84C20009B93F94C30002B07D028
:10298800FE238DF8273003E0FC238DF8273004E080
:1029980000BF02E0FF238DF827309DF92730184645
:1029A8000BB030BD10B586B002910192009303467A
:1029B8008DF80F30009801F0BEFE03468DF81730F1
:1029C8009DF91730002B30D1029B002B2DD0009B96
:1029D8001B7B002B12D19DF80F300099184601F08F
:1029E800DAFD03468DF817309DF91730002B05D115
:1029F8009DF80F3063F07F038DF80F30009B1C6C3F
:102A0800009B5B689DF80F00019A0299A047034656
:102A18001A46009B83F84C20009B93F94C30002BFE
:102A280006D0FE238DF8173002E0FF238DF817300B
:102A38009DF91730184606B010BD00B585B0019055
:102A4800E0238DF80E30B6238DF80D30019801F093
:102A580072FE03468DF80F309DF90F30002B2ED1F2
:102A6800019B1B7B002B05D1019801F003FE034657
:102A78008DF80F309DF90F30002B20D10DF10D018D
:102A88000DF10E00019B0122FFF7F5FE03468DF8BC
:102A98000F309DF90F30002B11D1019B9B6C019ACF
:102AA8005268114642F210709847019B1B7B002B1D
:102AB80005D1019801F0DEFD03468DF80F309DF930
:102AC8000F30184605B05DF804FB00B589B00190D9
:102AD800009100238DF81E3001238DF81D308A4A9D
:102AE80005AB92E8030018600433197003AB0022A9
:102AF8001A601A7107AB0099184600F0C4F903462A
:102B08008DF81F309DF91F30002B06D10099002049
:102B180000F04CF903468DF81F30019B002B03D1C0
:102B2800FF238DF81F30CBE09DF91F30002B40F0BC
:102B3800C7809DF8140003A9009B0522FFF732FF08
:102B480003468DF81F30009B002283F84D209DF925
:102B58001F30002B09D1019B0333009A0721184627
:102B680001F0B8FD03468DF81F309DF91F30002B8A
:102B780009D1019B0133009A0521184601F0AAFDED
:102B880003468DF81F309DF91F30002B09D1019B9A
:102B98000233009A0521184601F09CFD03468DF882
:102BA8001F309DF91F30002B08D1019B009A052189
:102BB800184601F08FFD03468DF81F309DF91F3030
:102BC800002B09D1019B0433009A0821184601F013
:102BD80081FD03468DF81F309DF91F30002B6FD102
:102BE8009DF810305BB223F01C035AB2019BDB78CE
:102BF8005BB29B005BB203F01C035BB213435BB296
:102C0800DBB28DF810309DF80F305BB203F01F0374
:102C18005AB2019B5B785BB25B015BB213435BB258
:102C2800DBB28DF80F309DF80F305BB223F01C0338
:102C38005AB2019B9B785BB29B005BB203F01C030A
:102C48005BB213435BB2DBB28DF80F309DF80D30E9
:102C58005BB223F007035AB2019B1B785BB203F007
:102C680007035BB213435BB2DBB28DF80D30019BF7
:102C78001B79082B06D0019B1B798DF81E30002389
:102C88008DF81D309DF810305BB203F01F035AB267
:102C98009DF91E305B015BB213435BB2DBB28DF86A
:102CA80010309DF80C305BB203F07F035AB29DF9E7
:102CB8001D30DB015BB213435BB2DBB28DF80C3025
:102CC8009DF91F30002B08D103A905A8009B0522F8
:102CD800FFF7D1FD03468DF81F309DF81C30002BFF
:102CE8000CD09DF91F30002B08D19DF81C3000999D
:102CF800184600F05BF803468DF81F309DF91F3029
:102D0800184609B05DF804FB2C64000800B585B0CE
:102D18000190009171238DF80E3002A99DF80E00E4
:102D2800009B0522FFF73EFE03468DF80F30019BFE
:102D3800002B03D1FF238DF80F3031E09DF90F30C0
:102D4800002B2DD19DF8093003F00703DAB2019B5F
:102D58001A709DF80C309B10DBB203F00703DAB24F
:102D6800019BDA709DF80B305B09DAB2019B5A704F
:102D78009DF80B309B10DBB203F00703DAB2019B1E
:102D88009A709DF808305BB2002B03DA019B082289
:102D98001A7105E09DF80C305B09DAB2019B1A71D3
:102DA8009DF90F30184605B05DF804FB00B585B0F5
:102DB800034600918DF8073000238DF80E307423F8
:102DC8008DF80C300DF10D01009B01227420FFF7E6
:102DD800E9FD03468DF80F309DF90F30002B22D105
:102DE8009DF80D3003F003038DF80E309DF80E307A
:102DF800002B18D09DF80D3023F00303DBB28DF8BB
:102E08000D300DF10D0103A8009B0122FFF733FDE2
:102E180003468DF80F30009B9B6C009A5268114650
:102E280042F2107098479DF80E30002B03D09DF9A0
:102E38000F30002BC6D09DF80730002B1DD09DF910
:102E48000F30002B19D19DF80D305BB223F003032E
:102E58005AB29DF9073003F003035BB213435BB228
:102E6800DBB28DF80D300DF10D0103A8009B012296
:102E7800FFF701FD03468DF80F309DF90F30184616
:102E880005B05DF804FB00B585B001900091019B89
:102E9800002B11D00DF10E01009B01227420FFF7C9
:102EA80081FD03468DF80F309DF80E3003F00303C3
:102EB800DAB2019B1A7002E0FF238DF80F309DF9FA
:102EC8000F30184605B05DF804FB00B58BB003461B
:102ED800029101928DF80F3000230893344A05AB14
:102EE80092E80300186004331980029B002B59D024
:102EF800029B0133019A0521184601F0EBFB0346BA
:102F08008DF827309DF92730002B09D1029B023319
:102F1800019A0521184601F0DDFB03468DF827309C
:102F28009DF92730002B08D1029B019A05211846EC
:102F380001F0D0FB03468DF827309DF92730002B90
:102F480030D1029B5B7828336B4413F8143C079309
:102F5800029B9B7828336B4413F8143C1A46079B52
:102F680013440793029B1B7828336B4413F8143CD3
:102F78001A46079B13440793079B40F2AB7202FB68
:102F880003F30893089B03F274730893089B03F6F2
:102F9800511308939DF80F30022B03D0089B03F5BB
:102FA8007A730893089B18460BB05DF804FB00BFC2
:102FB8003464000830B59BB0029101920093034637
:102FC8008DF80F3000238DF8663000238DF86530BA
:102FD80000238DF8643016AB00221A605A609A609C
:102FE80004AB48220021184602F0ADFD04AB16934D
:102FF80004AB1833179304AB30331893009801F0DF
:103008009AFB03468DF867309DF96730002B40F036
:10301800C280029B002B00F0BE809DF80F30012B70
:103028001CD1009A0299002000F03DFF03468DF85C
:1030380067309DF96730002B40F0A180029B1B7818
:103048005BB2002B03DA01238DF8643097E000238C
:103058008DF8643002238DF8673090E09DF80F30CA
:10306800022B04D09DF80F30032B40F0858016AB5F
:103078000099184601F070F803468DF86730002370
:103088008DF8643000238DF8663014E09DF86630C2
:103098009B0068336B4453F8103C1B785BB2002BE1
:1030A80004DA9DF8643001338DF864309DF8663099
:1030B80001338DF866309DF86630022B03D89DF9F0
:1030C8006730002BE2D000238DF866301BE09DF8B6
:1030D800663001338DF865300CE016AA9DF865104E
:1030E8009DF86630184601F0CDFC9DF86530013337
:1030F8008DF865309DF86530022BEED99DF8663065
:1031080001338DF866309DF86630012B03D89DF9A0
:103118006730002BDBD000238DF866301CE09DF86B
:1031280066309B0068336B4453F8101C9DF866208A
:1031380013465B001344DB001A46029B13441C46EB
:103148000D460FCD0FC495E8030084E803009DF8F1
:10315800663001338DF866309DF86630022B03D84F
:103168009DF96730002BDAD09DF86430002B06D12A
:1031780002238DF8673002E001238DF86730019B48
:10318800002B03D1FF238DF8673007E0019B9DF8E2
:1031980064201A7002E0FF238DF867309DF96730CC
:1031A80018461BB030BD00B589B0034602910192A4
:1031B8008DF80F3000238DF81C3000238DF81D305A
:1031C80047F27013ADF81430029B002B7DD00199A3
:1031D8000020FFF7EBFD03468DF81F309DF91F30E7
:1031E800002B09D107AA9DF80F10019B029801F046
:1031F800BEFA03468DF81F309DF91F30002B67D1AA
:1032080006A9019B02227020FFF7CCFB03468DF82C
:103218001F309DF91F30002B5AD1029B1B78012BC0
:103228000ED100238DF81E30019B9B68012B03D122
:1032380002238DF81D3009E001238DF81D3005E0CB
:1032480001238DF81E3000238DF81D309DF81830AD
:103258005BB223F008035AB29DF91E30DB005BB263
:1032680003F008035BB213435BB2DBB28DF818308E
:103278009DF819305BB223F00F035AB29DF81C3049
:103288005BB203F00F035BB213435BB2DBB28DF8A2
:1032980019309DF819305BB223F030035AB29DF90A
:1032A8001D301B015BB203F030035BB213435BB20A
:1032B800DBB28DF8193006A905A8019B0222FFF799
:1032C800DAFA03468DF81F3002E0FF238DF81F302D
:1032D8009DF91F30184609B05DF804FB00B587B0AA
:1032E8000190009100238DF8173003AB00221A607B
:1032F8005A601A81019B002B5CD0019BDB68002B74
:1033080058D0019B9B68002B54D003A9009B0A222C
:103318005A20FFF747FB03468DF817309DF9173001
:10332800002B4BD100238DF8163012E09DF8163093
:1033380018336B4413F80C1C019B9A689DF81630DF
:103348005B0013440A461A809DF8163001338DF845
:103358001630019B1B7C9DF816209A42E6D303A9E0
:10336800009B0A226420FFF71DFB03468DF81730E7
:103378009DF91730002B21D100238DF8163012E06B
:103388009DF8163018336B4413F80C1C019BDA684F
:103398009DF816305B0013440A461A809DF81630D3
:1033A80001338DF81630019B1B7C9DF816209A423C
:1033B800E6D303E0FF238DF8173000E000BF9DF946
:1033C8001730184607B05DF804FB00B5C3B042AB30
:1033D800A3F58273186000238DF806311DAB902287
:1033E8000021184602F0AFFB42ABA3F582731868C0
:1033F80001F0A1F903468DF807319DF90731002B3B
:1034080028D119238DF8323042ABA3F582731B689B
:103418001B6C199342ABA3F582731B685B6C1A9300
:1034280042ABA3F582731B681B7B8DF8303042AB2F
:10343800A3F582731B689B6C1B9342ABA3F5827345
:103448001B685B680A9309AB1846FFF7E3F9034664
:103458008DF807319DF90731002B40F0D780012303
:103468008DF81C3005238DF81E3002238DF81D3091
:1034780042ABA3F5807301221A7042ABA3F58073A7
:103488004FF47A729A8042ABA3F580734FF4AF720F
:103498005A8009AA02AB19460120FFF784FE0346A9
:1034A8008DF807319DF90731002B40D109AA07ABE8
:1034B80011461846FFF709FB03468DF807319DF9B9
:1034C8000731002B33D109AB19460120FFF76EFCF9
:1034D80003468DF807319DF90731002B27D11B9B37
:1034E8000A9A11464C48984709AB0DF205121DA9D6
:1034F8000120FFF75FFD03468DF807319DF907317D
:10350800002B14D19DF87830002B0DD09DF8783021
:10351800FF2B09D09DF8743003F02003002B03D053
:1035280000238DF8073102E0FB238DF8073142AB09
:10353800A3F580734FF4FA629A8053E09DF8063140
:1035480003F00103DBB2002B06D142ABA3F5807375
:103558004FF4AF725A8004E042ABA3F58073962211
:103568005A8009AA02AB19460120FFF71CFE034640
:103578008DF807319DF90731002B2ED109AA07AB29
:1035880011461846FFF7A1FA03468DF807319DF951
:103598000731002B21D109AB19460120FFF706FCA2
:1035A80003468DF807319DF90731002B15D11B9B78
:1035B8000A9A1146194898479DF806211DA91346ED
:1035C8005B001344DB00194409AB0DF2051201201E
:1035D800FFF7F0FC03468DF807319DF806310133FB
:1035E8008DF806319DF90731002B03D19DF806317E
:1035F800052BA3D99DF90731002B07D11DAB062157
:10360800184601F0C9FA03468DF807319DF90731CC
:10361800184643B05DF804FB40420F0080841E004A
:1036280086B001900091019B07EE903AF8EE677A18
:10363800DFED376A87EEA67A009BDB8B07EE903AC0
:10364800F8EE676A9FED336AC6EE867A37EE677AD8
:10365800009BB3F9203007EE903AF8EEE77A67EE70
:10366800277ACDED057A019B07EE903AF8EE677A56
:10367800DFED296A87EEA67A009BDB8B07EE903A8E
:10368800F8EE676A9FED256AC6EE867A37EE677AA6
:10369800019B07EE903AF8EE677A9FED1F6AC7EE36
:1036A800866A009BDB8B07EE903AB8EE676ADFED1F
:1036B8001B5AC6EE257A76EEE77A27EE277A009B24
:1036C80093F9223007EE903AF8EEE77AF3EE006AC3
:1036D80067EEA67A67EE277ACDED047A9DED057A36
:1036E800DDED047A77EE277A009BC3ED0E7A009B16
:1036F80093ED0E7ADFED0A6AC7EE267ACDED037AEE
:10370800039B07EE903AB0EE670A06B0704700BF19
:103718000000804600008044000000480000004689
:103728000000A04586B001900091009B93ED0E7AB1
:10373800F0EE006AC7EE267A9FED8C7A77EEC77AAC
:10374800CDED047ADDED047A27EEA77A009B93F994
:103758002E3007EE903AF8EEE76A9FED856AC6EEDE
:10376800867A67EE277ACDED037A009BB3F92C3081
:1037780007EE903AB8EEE77ADDED047A67EE277A3D
:1037880077EEA77A9DED037A77EE277ACDED037A67
:10379800DDED037AF1EE006A87EEA67A009BB3F9B5
:1037A8002A3007EE903AF8EEE77ADFED726A67EEB4
:1037B800A67A77EE277ACDED037A009B93F9283025
:1037C80007EE903AB8EEE77ADDED047A27EE277A2D
:1037D800DDED047A67EE277ADFED676A87EEA67A71
:1037E800009BB3F9263007EE903AF8EEE76ADDED74
:1037F800047A66EEA77A37EE277ADFED606AC7EEBD
:10380800267ACDED047A9DED047ADFED5D6AC7EE88
:10381800267AB7EE007A37EE877A009B9B8C07EE04
:10382800903AF8EE677A67EE277ACDED047A019B35
:1038380007EE903AF8EE677A9FED527A77EE677A5C
:10384800CDED057ADDED047AFDEEE77A17EE903AD4
:10385800002B00F081809DED037ADFED4B6AC7EE07
:10386800267A9DED057A77EE677A9FED487A67EEBE
:10387800876A9DED047AC6EE877ACDED057A009BBE
:10388800B3F9323007EE903AB8EEE77ADDED057A13
:1038980027EE277ADDED057A27EE277ADFED3C6AF9
:1038A800C7EE267ACDED047A009BB3F9303007EEE7
:1038B800903AB8EEE77ADFED326AC7EE267A9DEDE8
:1038C800057A67EE277ACDED037ADDED057ADFED2F
:1038D800316A87EEA67ADDED056A9FED2E6AC6EE9F
:1038E800867A27EE277ADDED056A9FED2A6AC6EE0D
:1038F800867A27EE277A009B93F8343007EE903AC1
:10390800F8EEE76A9FED1A6AC6EE867A67EE277ABE
:10391800CDED027A9DED047ADDED037A37EE277A54
:10392800DDED027A37EE277A009B93F92F3007EE08
:10393800903AF8EEE77ADFED186A67EEA67A37EE86
:10394800277AF3EE006AC7EE267A9DED057A77EEC0
:10395800277ACDED057A02E04FF000030593059B29
:1039680007EE903AB0EE670A06B0704700007A4753
:103978000000004800008047000080460000004921
:103988000000004700008049000080450050C34502
:103998000000004F000080430000004388B0034649
:1039A8000091ADF80630009B93ED0E7ADFED596A71
:1039B800C7EE267ACDED067ABDF8063007EE903AC6
:1039C800B8EE677A009B1B8A07EE903AF8EE677AA2
:1039D800F3EE006A67EEA66A009B93F9143007EECF
:1039E800903AF8EEE77AF0EE005A87EEA56ADDED38
:1039F800067A66EE277A76EEA77A77EE677ACDEDC5
:103A0800057A009B5B8A07EE903AF8EE677ADFED5D
:103A1800426A87EEA67A009B93F9153007EE903A32
:103A2800F8EEE77A9FED3D6AC7EE866ADDED067A25
:103A380066EEA77AF7EE006A77EEA66A009B93F91E
:103A4800163007EE903AF8EEE77ADFED355A87EE52
:103A5800A56ADDED067A26EE276ADDED067A66EEC2
:103A6800277A76EEA77A67EE277A9DED057A67EED4
:103A7800277ACDED047A009BDB7D07EE903AB8EE0D
:103A8800677ADFED266AC7EE267ACDED037A009BCA
:103A980093F9183007EE903AB8EEE77ADFED216A2D
:103AA800C7EE267ACDED027A9DED027ADDED067A33
:103AB80027EE277ADDED037A37EE277ADDED047AF3
:103AC80027EE277ADDED047A67EE277A9DED047AF2
:103AD80077EE277ACDED077ADDED077A9FED127A3A
:103AE800F4EEC77AF1EE10FA02DD104B079309E005
:103AF800DDED077AF5EEC07AF1EE10FA02D54FF057
:103B080000030793079B07EE903AB0EE670A08B0E8
:103B1800704700BF0000A0450000804800008046B4
:103B2800000080490000004A0000C8420000C84266
:103B380030B4A8B003460092ADF806300B468DF8B5
:103B48000530BDF8063007EE903AF8EE677ACDED0D
:103B5800277A9DF80530012202FA03F307EE903A1E
:103B6800F8EE677ACDED267A3D4B12AC1D460FCDA7
:103B78000FC40FCD0FC40FCD0FC495E80F0084E814
:103B88000F00384B02AC1D460FCD0FC40FCD0FC42C
:103B98000FCD0FC495E80F0084E80F00009B93F940
:103BA8003E3007EE903AF8EEE77AB1EE047A67EE27
:103BB800877A9FED2D7A77EE877ACDED257A9DF875
:103BC80005309B00A0336B44583B93ED007ADFED42
:103BD800276AC7EE267AB7EE007A77EE877A9DEDE8
:103BE800257A67EE277ACDED247A9DF805309B007B
:103BF800A0336B44983B93ED007ADFED1C6AC7EE67
:103C0800267AB7EE007A77EE877ACDED237ADDED66
:103C1800237A9FED177A27EE877ADDED267A27EE4D
:103C2800277ADDED277ADFED136A37EEE66ADDEDF8
:103C3800246AC6EE267AF7EE006A77EEA67A27EEB1
:103C4800277AF7EE006AC6EE877ACDED227A229BB4
:103C580007EE903AB0EE670A28B030BC704700BF54
:103C68003C6400087C6400080080A7440000C84247
:103C7800BD3706340000004486B003460A46ADF856
:103C8800063013468DF805309DF805304FF4802234
:103C980022FA03F30593BDF80630A3F500730493E5
:103CA800049A13465B0013440493049B03F5805362
:103CB8000493059B07EE903AF8EE677A9FED097A30
:103CC80067EE876A049B07EE903AB8EEE77AC6EE8D
:103CD800877ACDED037A039B07EE903AB0EE670A38
:103CE80006B07047002474498AB003460291ADF8C3
:103CF8000E30BDF80E30B3F5C87F03D94FF4C87342
:103D0800ADF80E30029B93F9193007EE903AB8EEF1
:103D1800E77AF3EE006AC7EE267A9FED457A77EEEA
:103D2800877ACDED097A029BB3F91A3007EE903AFB
:103D3800B8EEE77ADFED3F6AC7EE267A9FED3E7A66
:103D480067EE877A9FED3D7A77EE877ACDED087A30
:103D5800029B93F91C3007EE903AB8EEE77ADFED54
:103D6800386AC7EE267ACDED077ABDF80E3007EE31
:103D7800903AB8EE677ADDED087A67EE277AB7EE03
:103D8800007A77EE877A9DED097A67EE277ACDED8E
:103D9800067A029B93F90E3007EE903AB8EEE77A6E
:103DA800DDED077A67EE277A9DED067A77EE277ABA
:103DB800CDED057A029B93F83C3007EE903AF8EE89
:103DC800677AB1EE007A77EE877AF1EE006A86EECE
:103DD800A77ADDED057A27EE277A029B93F93D3025
:103DE80007EE903AF8EEE77ADFED166A67EEA67A04
:103DF800F7EE006A77EEA66AB7EE006AC6EE267A94
:103E080067EE277AB3EE097A77EEC77A9FED0E7AD6
:103E180067EE877AFCEEE77ACDED017A9DF80430FB
:103E28008DF813309DF8133018460AB0704700BF5C
:103E380000004442000000476F12033A75021A3B23
:103E4800000080446F12033B9A99594084B003469E
:103E5800ADF8063000238DF80F30BDF80630B3F505
:103E68007C6F0DD3FF238DF80E3017E0BDF80630B8
:103E78009B08ADF806309DF80F3001338DF80F30F0
:103E8800BDF806303F2BF1D8BDF80630DAB29DF800
:103E98000F309B01DBB213448DF80E309DF80E30C5
:103EA800184604B0704700B58FB0034602910192DE
:103EB8008DF80F3000238DF8373004AB00221A60DC
:103EC8005A609A60DA601A7405238DF8363034E146
:103ED8009DF80F301A4612011344DBB21D33D8B2D5
:103EE80004A9019B1122FEF75DFD03468DF83730CA
:103EF800029B002B03D1FF238DF8373026E19DF874
:103F0800103023F07F03DAB2029B1A709DF810304C
:103F180003F00F03DAB2029B5A709DF81120029B3E
:103F28009A709DF812301A039DF813301B01134341
:103F38009DF814201209D2B213430C939DF8153042
:103F48001A039DF816301B0113439DF81720120918
:103F5800D2B213430B939DF818301B029BB29DF805
:103F680019201343ADF82A309DF81D309B009BB2F1
:103F78009DF81E209209D2B21343ADF828309DF85F
:103F88001F309B009BB29DF820209209D2B21343A8
:103F9800ADF826309DF81E3003F00F038DF825305C
:103FA8009DF8203003F00F038DF82430019B9B68A7
:103FB800012B1CD1029B1B785AB29DF820305BB2B2
:103FC80003F020035BB213435BB2DAB2029B1A70B0
:103FD800029B1B785AB29DF820305BB203F01003A5
:103FE8005BB213435BB2DAB2029B1A701BE0029B0E
:103FF8001B785AB29DF81E305BB203F020035BB207
:1040080013435BB2DAB2029B1A70029B1B785AB256
:104018009DF81E305BB203F010035BB213435BB232
:10402800DAB2029B1A70029B1B785BB2002B73DA20
:104038009DF93730002B6FD1029B5B785A33D8B289
:10404800029BD91C019B0122FEF7ACFC03468DF8AC
:1040580037309DF93730002B0CD1029B5B785033F9
:10406800D8B2029B191D019B0122FEF79BFC034657
:104078008DF837309DF93730002B0CD1029B5B78D7
:104088006433D8B2029B591D019B0122FEF78AFCBA
:1040980003468DF837309DF93730002B3CD1019914
:1040A8000B98FFF7BDFAF0EE407A029BC3ED027A57
:1040B80001990C98FFF736FBF0EE407A029BC3EDAE
:1040C800037ABDF82A3001991846FFF767FCF0EE2D
:1040D800407A029BC3ED047A019B9B68012B0DD1AA
:1040E8009DF82420BDF8263011461846FFF7C4FD78
:1040F800F0EE407A029BC3ED057A27E09DF8251083
:10410800BDF82830019A1846FFF712FDF0EE407A04
:10411800029BC3ED057A19E09DF93730002B07D1D2
:10412800019B9B6C019A5268114642F210709847A5
:104138009DF83630013B8DF836309DF83630002B2F
:1041480004D09DF93730002B3FF4C2AE9DF93730CB
:1041580018460FB05DF804FB10B59CB001900091B3
:1041680000238DF86F300AAB33220021184601F086
:10417800EAFC02AB1E220021184601F0E4FC019B78
:104188001B68002B0CD1019B04331B68002B07D143
:10419800019B08331B68002B02D1FF238DF86F3079
:1041A8009DF96F30002B08D10AA9009B33221D20EE
:1041B800FEF7F8FB03468DF86F309DF96F30002B42
:1041C80008D102A9009B1E225020FEF7EBFB0346F4
:1041D8008DF86F3000238DF86E30CEE19DF86E308B
:1041E8001A46120113448DF86D309DF86D30703306
:1041F8006B4413F8482C9DF86E309B0001990B44D2
:104208001B6822F07F02D2B21A709DF86D307033AD
:104218006B4413F8482C9DF86E309B0001990B44B1
:104228001B6802F00F02D2B25A709DF86D305A1C0A
:104238009DF86E309B0001990B441B6870326A44EC
:1042480012F8482C9A709DF86D30023370336B4425
:1042580013F8483C1A039DF86D30033370336B44F0
:1042680013F8483C1B0113439DF86D20043270324B
:104278006A4412F8482C1209D2B213431A939DF8D3
:104288006D30053370336B4413F8483C1A039DF8BE
:104298006D30063370336B4413F8483C1B011343ED
:1042A8009DF86D20073270326A4412F8482C1209C2
:1042B800D2B2134319939DF86D30083370336B44B1
:1042C80013F8483C1B029BB29DF86D2009327032EE
:1042D8006A4412F8482C1343ADF862309DF86D30EB
:1042E8000D3370336B4413F8483C9B009BB29DF828
:1042F8006D200E3270326A4412F8482C9209D2B2FC
:104308001343ADF860309DF86D300F3370336B4454
:1043180013F8483C9B009BB29DF86D201032703218
:104328006A4412F8482C9209D2B21343ADF85E30B1
:104338009DF86D300E3370336B4413F8483C03F02E
:104348000F038DF85D309DF86D30103370336B447A
:1043580013F8483C03F00F038DF85C30009B9B6812
:10436800012B3AD19DF86E309B00019A13441B68CB
:104378001B785AB29DF86D30103370336B4413F8C4
:10438800483C5BB203F020035BB2134359B29DF87B
:104398006E309B00019A13441B68CAB21A709DF8CC
:1043A8006E309B00019A13441B681B785AB29DF823
:1043B8006D30103370336B4413F8483C5BB203F034
:1043C80010035BB2134359B29DF86E309B00019AFB
:1043D80013441B68CAB21A7039E09DF86E309B000E
:1043E800019A13441B681B785AB29DF86D300E333E
:1043F80070336B4413F8483C5BB203F020035BB2A4
:10440800134359B29DF86E309B00019A13441B6800
:10441800CAB21A709DF86E309B00019A13441B684B
:104428001B785AB29DF86D300E3370336B4413F815
:10443800483C5BB203F010035BB2134359B29DF8DA
:104448006E309B00019A13441B68CAB21A709DF81B
:104458006E309B00019A13441B685B7819469DF8DF
:104468006E309B00019A13441B6801F170026A4484
:1044780012F8682C1A719DF86E309B00019A13444B
:104488001B685B7803F10A029DF86E309B00019966
:104498000B441B6870326A4412F8682CDA709DF875
:1044A8006E309B00019A13441B685B7803F1140279
:1044B8009DF86E309B0001990B441B6870326A446A
:1044C80012F8682C5A719DF86E309B00019A1344BB
:1044D8001C6800991998FFF7A3F8F0EE407AC4ED2C
:1044E800027A9DF86E309B00019A13441C6800996B
:1044F8001A98FFF717F9F0EE407AC4ED037A9DF8A1
:104508006E309B00019A13441C68BDF86230009914
:104518001846FFF743FAF0EE407AC4ED047A009BA0
:104528009B68012B12D19DF86E309B00019A1344B1
:104538001C689DF85C20BDF85E3011461846FFF7F0
:104548009BFBF0EE407AC4ED057A11E09DF86E30E1
:104558009B00019A13441C689DF85D10BDF86030FB
:10456800009A1846FFF7E4FAF0EE407AC4ED057AAF
:104578009DF86E3001338DF86E309DF86E30022B49
:1045880004D89DF96F30002B3FF428AE9DF96F30A9
:1045980018461CB010BD10B584B0034600918DF8C4
:1045A8000730009800F0C7F803468DF80F309DF9E2
:1045B8000F30002B59D19DF90730002B03DA002367
:1045C8008DF80E3002E010238DF80E30009B5B7BD7
:1045D8009DF80E209A4248D0009B9DF80E205A73F1
:1045E800009B1C6C009B5B680DF10D010122F32000
:1045F800A04703461A46009B83F84C20009B93F97A
:104608004C30002B02D0FE238DF80F309DF90F306F
:10461800002B2AD19DF80D3023F01003DBB28DF862
:104628000D30009B5B7B5BB203F010035AB29DF820
:104638000D305BB213435BB2DBB28DF80D30009BDB
:104648005C6C009B5B680DF10D0101227320A04793
:1046580003461A46009B83F84C20009B93F94C3084
:10466800002B02D0FE238DF80F309DF90F3018462D
:1046780004B010BD10B584B00190019800F05BF84B
:1046880003468DF80F309DF90F30002B1DD1019B8B
:104698001C6C019B5B680DF10E010122F320A04701
:1046A80003461A46019B83F84C20019B93F94C3032
:1046B800002B03D0FE238DF80F3006E09DF80E3056
:1046C80003F01003DAB2019B5A739DF90F301846B4
:1046D80004B010BD00B587B003900B4601928DF869
:1046E8000B30019800F027F803468DF81730039B2C
:1046F800002B17D09DF91730002B13D1039B1B7883
:104708009DF80B209A4210D2039B9DF80B201A703B
:10471800019B93F84D3043F00103DAB2019B83F813
:104728004D2002E0FF238DF817309DF91730184609
:1047380007B05DF804FB84B0019000238DF80F30BA
:10474800019B002B0BD0019B1B6C002B07D0019BFE
:104758005B6C002B03D0019B9B6C002B02D1FF23C9
:104768008DF80F309DF90F30184604B0704710B51A
:1047780092B00390019200930B468DF80B30002302
:104788008DF8473000238DF845306E238DF843307F
:104798000EAB00221A605A601A810BAB00221A6015
:1047A8005A601A8108AB00221A605A601A8105AB58
:1047B80000221A605A601A819DF80B30032B25D00D
:1047C800032B00F3F980012B02D0022B7DD0F3E0FC
:1047D8005A238DF83830039B5B8800991846FFF7F9
:1047E80083FA03468DF82C3064238DF82030039B20
:1047F8009B881846FFF72AFB03468DF81430019B67
:1048080000221A7001238DF84530DAE0039BDB683B
:10481800002B03D0039B9B68002B03D1FF238DF84B
:104828004730CEE000238DF846303FE09DF8463013
:104838009DF846205A32D2B248336B4403F8102C04
:10484800039B9A689DF846305B0013441B889DF8CB
:10485800464000991846FFF747FA03461A4604F1FE
:1048680048036B4403F81C2C9DF846309DF84620FD
:104878006432D2B248336B4403F8282C039BDA68BD
:104888009DF846305B0013441B889DF84640184647
:10489800FFF7DCFA03461A4604F148036B4403F8B1
:1048A800342C9DF8463001338DF84630039B1B7C31
:1048B8009DF846209A42B9D3039B1A7C019B1A7033
:1048C800039B1B7C8DF845307BE0039BDB68002B4A
:1048D80003D0039B9B68002B03D1FF238DF847303F
:1048E8006FE0039B5B8A002B02D103238DF84730CE
:1048F80000238DF846303AE09DF846309DF8462072
:104908005A32D2B248336B4403F8102C039B9A688E
:104918009DF846305B0013441B889DF8464000997B
:104928001846FFF7E1F903461A4604F148036B44B9
:1049380003F81C2C9DF846309DF846206432D2B20C
:1049480048336B4403F8282C039BDA689DF84630FB
:104958005B0013441A889DF84630D2B248336B4442
:1049680003F8342C9DF8463001338DF84630039B0C
:104978001B7C9DF846209A42BED3039B1A7C019B60
:104988001A70039B1B7C8DF84530039B5B8A184685
:1049980000F038F803468DF844309DF94730002B75
:1049A8000ED111A90DF14300009B0122FDF763FF11
:1049B80003468DF8473003E001238DF8473000E0C7
:1049C80000BF9DF94730002B09D19DF845200BA960
:1049D8000EA8009BFDF74FFF03468DF847309DF961
:1049E8004730002B09D19DF8452005A908A8009B50
:1049F800FDF741FF03468DF847309DF947301846CB
:104A080012B010BD84B00346ADF8063000238DF80F
:104A18000F30BDF8063040F28272934203D9FF236B
:104A28008DF80E3027E0BDF806304FF47A7203FB9C
:104A380002F2134BA3FB0213D21A520813441B0AA7
:104A4800ADF8063009E0BDF806309B08ADF8063031
:104A58009DF80F3001338DF80F30BDF806303F2B2D
:104A6800F1D8BDF80630DAB29DF80F309B01DBB201
:104A780013448DF80E309DF80E30184604B0704778
:104A88009FB8C81200B585B0034600928DF807306C
:104A98000B468DF806309DF807309B00009A1344AA
:104AA8001B689B78ADF80E309DF806309B00009A85
:104AB80013441B689B78ADF80C309DF807309B00B9
:104AC800009A13441B681B785BB2002B27DA9DF809
:104AD80006309B00009A13441B681B785BB2002BBE
:104AE8001DDABDF80C20BDF80E30D31A9BB2ADF814
:104AF8000A30BDF90A3013F1020F03DBBDF90A30A1
:104B0800002B03DBBDF90A30022B1BDD9DF80610D4
:104B18009DF80730009A184600F019F812E09DF841
:104B280006309B00009A13441B681B785BB2002B6D
:104B380009DA9DF806109DF80730009A184600F02B
:104B480006F800E000BF00BF05B05DF804FB84B0C4
:104B5800034600928DF807300B468DF806309DF815
:104B680007309B00009A13441B6803939DF8063096
:104B78009B00009A1A449DF807309B0000990B444B
:104B880012681A609DF806309B00009A1344039A35
:104B98001A6000BF04B0704784B001900B468DF8CE
:104BA800033000238DF80F3000238DF80E300023DA
:104BB8000293019BD3ED027AF5EEC07AF1EE10FA7A
:104BC80009D4019BD3ED027A9FED497AF4EEC77AB6
:104BD800F1EE10FA04DD9DF80E3001338DF80E3039
:104BE800019BD3ED037A9FED437AF4EEC77AF1EE99
:104BF80010FA09D4019BD3ED037A9FED3F7AF4EEC6
:104C0800C77AF1EE10FA04DD9DF80E3001338DF805
:104C18000E30019BD3ED047AB3EE047AF4EEC77A32
:104C2800F1EE10FA09D4019BD3ED047A9FED337AA3
:104C3800F4EEC77AF1EE10FA04DD9DF80E30013378
:104C48008DF80E3000238DF80D3017E09DF80D20FB
:104C580013465B001344DB001A46019B13441B7880
:104C680003F02003002B04D19DF80E3001338DF89A
:104C78000E309DF80D3001338DF80D309DF80D2064
:104C88009DF803309A42E1D39DF80330052B1AD9D9
:104C9800019B483393ED057A019B7833D3ED057A70
:104CA80077EE277AB1EE047A67EE876A019B603364
:104CB800D3ED057A37EEA77AC6EE877AFCEEE77A67
:104CC80017EE903A0293029B052B04D89DF80E30FC
:104CD80001338DF80E309DF80E30002B02D0FB23E7
:104CE8008DF80F309DF90F30184604B0704700BF9B
:104CF8000000704200C8AF4700D8D6470000A04265
:104D080000B58FB0019003A9019B17228A20FDF7F7
:104D180049FE03468DF837309DF93730002B0AD10C
:104D280003AB03F11701019B0E22E120FDF73AFEC8
:104D380003468DF837309DF93730002B0AD103AB85
:104D480003F12501019B05220020FDF72BFE0346F8
:104D58008DF837309DF93730002B40F0E6809DF80C
:104D68002C301BB21B021AB29DF82B301BB2134316
:104D78001BB29AB2019BDA839DF80D301BB21B025D
:104D88001AB29DF80C301BB213431AB2019B1A8455
:104D98009DF80E305AB2019B83F822209DF81130FD
:104DA8001BB21B021AB29DF810301BB213431BB280
:104DB8009AB2019B9A849DF813301BB21B021AB257
:104DC8009DF812301BB213431AB2019BDA849DF886
:104DD80014305AB2019B83F828209DF817301BB273
:104DE8001B021AB29DF816301BB213431AB2019B6C
:104DF8005A859DF819301BB21B021AB29DF818305B
:104E08001BB213431AB2019B9A859DF81B305AB204
:104E1800019B83F82E209DF81A305AB2019B83F823
:104E28002F209DF81F301BB21B021AB29DF81E30AE
:104E38001BB213431AB2019B1A869DF821301BB28C
:104E48001B021AB29DF820301BB213431AB2019B01
:104E58005A869DF82220019B83F834209DF825303E
:104E68001BB21B011AB29DF824301BB203F00F03CA
:104E78001BB213431BB29AB2019B1A829DF82330CE
:104E88001BB21B011AB29DF824301B09DBB21BB2FE
:104E980013431BB29AB2019B5A829DF826305AB22C
:104EA800019B1A759DF827305AB2019B5A759DF8D7
:104EB80028305AB2019B9A759DF82920019BDA7512
:104EC8009DF82A305AB2019B1A769DF82F305AB2B3
:104ED800019B5A769DF82E301BB21B021AB29DF820
:104EE8002D301BB213431AB2019B5A839DF8303000
:104EF8005AB2019B1A779DF8333003F03003002B28
:104F080000DA0F331B11DAB2019B83F83C209DF8BD
:104F180031305AB2019B83F83D209DF835305BB2A1
:104F28001B115AB2019B83F83E209DF93730184671
:104F38000FB05DF804FB00B585B0019000238DF833
:104F48000E300DF10E01019B0122F020FDF72AFD24
:104F580003468DF80F309DF90F30002B04D19DF8D2
:104F68000E301A46019B9A609DF90F30184605B01D
:104F78005DF804FB2DE9F0438DB002AFB9607A60AB
:104F88003B600346FB736B461E463B683B627B688F
:104F9800591C0B46013BFB610023884699464FF09C
:104FA80000024FF000034FEAC90343EA58734FEA7F
:104FB800C80200230C461D464FF000024FF00003C4
:104FC800EB0043EA5473E200CB1DDB08DB00ADEBDA
:104FD800030D02AB0033BB61BB69FA7B1A70002377
:104FE80001937B6800930123BA697621386AFBF73D
:104FF800D1FD78617B69002B02D04FF0FF3312E0BE
:1050080000237B620AE0BA687B6A1344B9697A6A4A
:105018000A4412781A707B6A01337B627A6A7B6869
:105028009A42F0D30023B54618462C37BD46BDE852
:10503800F0832DE9F0438DB002AFB9607A603B6030
:105048000346FB736B461E463B683B627B68591CF4
:105058000B46013BFB610023884699464FF000024E
:105068004FF000034FEAC90343EA58734FEAC802F6
:1050780000230C461D464FF000024FF00003EB00E2
:1050880043EA5473E200CB1DDB08DB00ADEB030DF4
:1050980002AB0033BB61BB69FA7B1A7000237B62E9
:1050A8000AE0BA687B6A1A447B6A01331178BA69E4
:1050B800D1547B6A01337B627A6A7B689A42F0D367
:1050C8007B689BB201339BB200220092BA697621B9
:1050D800386AFBF7CDFC78617B69002B01D100238E
:1050E80001E04FF0FF33B54618462C37BD46BDE802
:1050F800F08300B585B001900091019B084AA2FB9E
:1051080003239B090393039B002B01D101230393E2
:105118000398FBF7B3FF00BF05B05DF804FB00BFC1
:10512800D34D621030B58FB0039002910192009375
:1051380006AB00221A605A609A60DA601A615A61F6
:1051480001990120FDF732FE019A02990120FDF72D
:10515800BCFE0246009B9B8819464FF47A7301FBFC
:1051680003F313440D93019B9B6C019A52681146FB
:105178000D9898470DF1170206A9019B0120FDF72C
:1051880019FF03468DF833309DF93330002B14D1C5
:105198009DF81730002B10D09DED097ADFED0D6AD0
:1051A800C7EE267ACDED097A9DF8183003F0100382
:1051B800002B02D14FF000030B93039B1D4606AC56
:1051C8000FCC0FC594E8030085E8030003980FB0DF
:1051D80030BD00BF0000C84282B00346ADF80630BB
:1051E80000BF02B0704782B0019000BF02B07047A4
:1051F80082B0019000BF02B0704700B58DB0FBF7D8
:10520800B5FEFDF7CDF9264B264A1A60244B264AEF
:105218005A602348FBF7D1FB244B254A1A64234BD9
:10522800244A5A64214B244A9A64204B01221A7357
:105238001E4B1B4A5A601D48FDF7ECFA03468DF8D1
:105248002F301E4B03225A701C4B05229A701B4BA1
:1052580003221A70194B0222DA70184B08221A71AD
:1052680012491648FDF731FC01238DF818304FF428
:10527800A073ADF81A306423ADF81C3006AB0B4AA6
:1052880019460120FDF78FFF684606AB074A0B4910
:10529800FFF748FF6420FBF7F1FE00BFF4E700BF0B
:1052A800CC03002000540040801A0600100400209F
:1052B8007D4F00083B500008FB50000860040020A8
:1052C80081F0004102E000BF83F0004330B54FEAAF
:1052D80041044FEA430594EA050F08BF90EA020F1C
:1052E8001FBF54EA000C55EA020C7FEA645C7FEAAF
:1052F800655C00F0E2804FEA5454D4EB5555B8BFD2
:105308006D420CDD2C4480EA020281EA030382EA42
:10531800000083EA010180EA020281EA0303362DD4
:1053280088BF30BD11F0004F4FEA01314FF4801CA7
:105338004CEA113102D0404261EB410113F0004FB9
:105348004FEA03334CEA133302D0524263EB430370
:1053580094EA050F00F0A780A4F10104D5F1200E0E
:105368000DDB02FA0EFC22FA05F2801841F1000169
:1053780003FA0EF2801843FA05F359410EE0A5F13D
:1053880020050EF1200E012A03FA0EFC28BF4CF06E
:10539800020C43FA05F3C01851EBE37101F0004524
:1053A80007D54FF0000EDCF1000C7EEB00006EEB31
:1053B8000101B1F5801F1BD3B1F5001F0CD34908BB
:1053C8005FEA30004FEA3C0C04F101044FEA445212
:1053D80012F5800F80F09A80BCF1004F08BF5FEA99
:1053E800500C50F1000041EB045141EA050130BD79
:1053F8005FEA4C0C404141EB0101013C28BFB1F58B
:10540800801FE9D291F0000F04BF01460020B1FAD5
:1054180081F308BF2033A3F10B03B3F120020CDAA8
:105428000C3208DD02F1140CC2F10C0201FA0CF086
:1054380021FA02F10CE002F11402D8BFC2F1200CEB
:1054480001FA02F120FA0CFCDCBF41EA0C019040A1
:10545800E41AA2BF01EB0451294330BD6FEA0404EA
:105468001F3C1CDA0C340EDC04F11404C4F12002D5
:1054780020FA04F001FA02F340EA030021FA04F3E7
:1054880045EA030130BDC4F10C04C4F1200220FA3E
:1054980002F001FA04F340EA0300294630BD21FA7C
:1054A80004F0294630BD94F0000F83F4801306BF42
:1054B80081F480110134013D4EE77FEA645C18BF36
:1054C8007FEA655C29D094EA050F08BF90EA020FCD
:1054D80005D054EA000C04BF1946104630BD91EAC5
:1054E800030F1EBF0021002030BD5FEA545C05D1C8
:1054F8004000494128BF41F0004130BD14F5800407
:105508003CBF01F5801130BD01F0004545F0FE417A
:1055180041F470014FF0000030BD7FEA645C1ABFAF
:10552800194610467FEA655C1CBF0B46024650EAE6
:10553800013406BF52EA033591EA030F41F4002112
:1055480030BD00BF90F0000F04BF0021704730B598
:105558004FF4806404F132044FF000054FF000016D
:1055680050E700BF90F0000F04BF0021704730B52E
:105578004FF4806404F1320410F0004548BF404203
:105588004FF000013EE700BF42004FEAE2014FEA58
:1055980031014FEA02701FBF12F07F4393F07F4F33
:1055A80081F06051704732F07F4208BF704793F036
:1055B8007F4F04BF41F40021704730B54FF4607449
:1055C80001F0004521F000411CE700BF50EA01024C
:1055D80008BF704730B54FF000050AE050EA0102F5
:1055E80008BF704730B511F0004502D5404261EB65
:1055F80041014FF4806404F132045FEA915C3FF4A6
:10560800D8AE4FF003025FEADC0C18BF03325FEA42
:10561800DC0C18BF033202EBDC02C2F1200300FAF3
:1056280003FC20FA02F001FA03FE40EA0E0021FA18
:1056380002F11444BDE600BF70B54FF0FF0C4CF406
:10564800E06C1CEA11541DBF1CEA135594EA0C0FB8
:1056580095EA0C0F00F0DEF82C4481EA030621EAF3
:105668004C5123EA4C5350EA013518BF52EA03352E
:1056780041F4801143F4801338D0A0FB02CE4FF0E0
:105688000005E1FB02E506F00042E0FB03E54FF010
:105698000006E1FB03569CF0000F18BF4EF0010E08
:1056A800A4F1FF04B6F5007F64F5407404D25FEA04
:1056B8004E0E6D4146EB060642EAC62141EA5551B7
:1056C8004FEAC52040EA5E504FEACE2EB4F1FD0CF9
:1056D80088BFBCF5E06F1ED8BEF1004F08BF5FEA77
:1056E800500E50F1000041EB045170BD06F0004629
:1056F80046EA010140EA020081EA0301B4EB5C04D6
:10570800C2BFD4EB0C0541EA045170BD41F48011CD
:105718004FF0000E013C00F3AB8014F1360FDEBFF2
:10572800002001F0004170BDC4F10004203C35DACE
:105738000C341BDC04F11404C4F1200500FA05F351
:1057480020FA04F001FA05F240EA020001F00042F2
:1057580021F0004110EBD37021FA04F642EB060168
:105768005EEA430E08BF20EAD37070BDC4F10C0492
:10577800C4F1200500FA04F320FA05F001FA04F256
:1057880040EA020001F0004110EBD37041F1000142
:105798005EEA430E08BF20EAD37070BDC4F120054D
:1057A80000FA05F24EEA020E20FA04F301FA05F2B5
:1057B80043EA020321FA04F001F0004121FA04F25D
:1057C80020EA020000EBD3705EEA430E08BF20EA2D
:1057D800D37070BD94F0000F0FD101F00046400067
:1057E80041EB010111F4801F08BF013CF7D041EAE9
:1057F800060195F0000F18BF704703F000465200ED
:1058080043EB030313F4801F08BF013DF7D043EABD
:105818000603704794EA0C0F0CEA135518BF95EA73
:105828000C0F0CD050EA410618BF52EA4306D1D1FA
:1058380081EA030101F000414FF0000070BD50EA19
:10584800410606BF1046194652EA430619D094EAA3
:105858000C0F02D150EA013613D195EA0C0F05D18D
:1058680052EA03361CBF104619460AD181EA0301E1
:1058780001F0004141F0FE4141F470014FF0000099
:1058880070BD41F0FE4141F4780170BD70B54FF034
:10589800FF0C4CF4E06C1CEA11541DBF1CEA1355B4
:1058A80094EA0C0F95EA0C0F00F0A7F8A4EB050496
:1058B80081EA030E52EA03354FEA013100F088808D
:1058C8004FEA03334FF0805545EA131343EA126356
:1058D8004FEA022245EA111545EA10654FEA00260B
:1058E8000EF000419D4208BF964244F1FD0404F5C4
:1058F800407402D25B084FEA3202B61A65EB030520
:105908005B084FEA32024FF480104FF4002CB6EBDC
:10591800020E75EB030E22BFB61A754640EA0C005C
:105928005B084FEA3202B6EB020E75EB030E22BF9C
:10593800B61A754640EA5C005B084FEA3202B6EBDD
:10594800020E75EB030E22BFB61A754640EA9C009C
:105958005B084FEA3202B6EB020E75EB030E22BF6C
:10596800B61A754640EADC0055EA060E18D04FEA2A
:10597800051545EA16754FEA06164FEAC30343EACA
:1059880052734FEAC2025FEA1C1CC0D111F4801F97
:105998000BD141EA00014FF000004FF0004CB6E790
:1059A80011F4801F04BF01430020B4F1FD0C88BF2F
:1059B800BCF5E06F3FF6AFAEB5EB030C04BFB6EB3A
:1059C800020C5FEA500C50F1000041EB045170BD2D
:1059D8000EF0004E4EEA113114EB5C04C2BFD4EB5A
:1059E8000C0541EA045170BD41F480114FF0000EDE
:1059F800013C90E645EA060E8DE60CEA135594EA5A
:105A08000C0F08BF95EA0C0F3FF43BAF94EA0C0F5C
:105A18000AD150EA01347FF434AF95EA0C0F7FF4D1
:105A280025AF104619462CE795EA0C0F06D152EA25
:105A380003353FF4FDAE1046194622E750EA410609
:105A480018BF52EA43067FF4C5AE50EA41047FF41A
:105A58000DAF52EA43057FF4EBAE12E74FEA41027D
:105A6800B2F1E04324BFB3F5001CDCF1FE5C0DD9B4
:105A780001F0004C4FEAC0024CEA5070B2F1004FFE
:105A880040EB830008BF20F00100704711F0804F01
:105A980021D113F13872BCBF01F00040704741F4C6
:105AA80080114FEA5252C2F11802C2F1200C10FACA
:105AB8000CF320FA02F018BF40F001004FEAC123AE
:105AC8004FEAD32303FA0CFC40EA0C0023FA02F352
